:020000040800F2
:10000000C0120020A50900086D060008910900082B
:1000100091090008910900089109000800000000FA
:10002000000000000000000000000000910A00082D
:1000300091090008000000002D0A0008C11A0008FC
:10004000150C0008150C0008150C0008150C00080C
:10005000150C0008150C0008150C0008150C0008FC
:10006000150C0008150C0008150C0008150C0008EC
:10007000150C0008150C0008150C0008150C0008DC
:10008000150C0008150C0008150C0008150C0008CC
:10009000150C0008150C0008150C0008150C0008BC
:1000A000150C0008150C0008150C0008150C0008AC
:1000B000150C0008150C0008150C0008150C00089C
:1000C000150C0008150C0008150C0008150C00088C
:1000D000150C0008150C0008150C0008150C00087C
:1000E000150C0008150C0008150C0008150C00086C
:1000F000150C0008150C0008150C0008150C00085C
:10010000150C0008150C0008150C0008150C00084B
:10011000150C0008150C0008150C0008150C00083B
:10012000150C0008150C0008150C0008150C00082B
:10013000150C0008150C0008150C0008150C00081B
:10014000150C0008150C0008150C0008150C00080B
:10015000150C0008150C0008150C0008150C0008FB
:10016000150C0008150C0008150C0008150C0008EB
:10017000150C0008150C0008150C0008150C0008DB
:10018000150C0008150C0008150C0008150C0008CB
:08019000150C0008150C000815
:100198007BB972B90029BEBF00204FF0004106E0CC
:1001A80008BF00281CBF6FF000414FF0FF3000F07F
:1001B80057B8ADF1080C6DE904CE002909DB002B16
:1001C8001ADB00F04FF8DDF804E0DDE9022304B0A3
:1001D8007047404261EB4101002B1BDB00F042F805
:1001E800DDF804E0DDE9022304B0404261EB41019F
:1001F800524263EB43037047524263EB430300F000
:1002080031F8DDF804E0DDE9022304B0404261EB97
:1002180041017047524263EB430300F023F8DDF8D5
:1002280004E0DDE9022304B0524263EB4303704764
:1002380053B94AB9002908BF00281CBF4FF0FF3145
:100248004FF0FF3000F00CB8ADF1080C6DE904CEAA
:1002580000F008F8DDF804E0DDE9022304B0704797
:10026800704700BF2DE9F04786468C460846089E31
:10027800154674461946002B40F0C2808542B2FAF2
:1002880082F245D94AB1C2F1200300FA02FC2EFAE3
:1002980003F3954043EA0C0C94404FEA154EA8B27C
:1002A800BCFBFEF8230C0EFB18CC08FB00F943EA54
:1002B8000C43994528D9EB1808F1FF3704D2994522
:1002C80002D9A8F102072B44A3EB0903A4B2B3FB9C
:1002D800FEFC0EFB1C330CFB00F044EA0344A04276
:1002E80014D92C190CF1FF3304D2A04202D9ACF175
:1002F80002032C44241A43EA07401EB1D4400023C9
:1003080034607360BDE8F0874746DDE76346F1E790
:1003180092BB431B01214FEA154EAFB2B3FBFEFC63
:10032800200C0EFB1C330CFB07F840EA03439845EE
:1003380062D9EB180CF1FF3004D2984502D9ACF120
:1003480002002B44A3EB0803A4B2B3FBFEFC0EFB94
:100358001C330CFB07F744EA0344A7424ED92C1977
:100368000CF1FF3304D2A74202D9ACF102032C44AA
:10037800E41B43EA0040C0E7C2F1200320FA03F17E
:10038800954090402EFA03F303434FEA154EAFB25F
:10039800B1FBFEFC0EFB1C10190C0CFB07F841EA24
:1003A8000041884504FA02F422D969180CF1FF309B
:1003B80004D2884502D9ACF102002944A1EB080116
:1003C8009BB2B1FBFEFC0EFB1C110CFB07F743EACA
:1003D80001439F420ED9EB180CF1FF3104D29F4222
:1003E80002D9ACF102012B44DB1B41EA004192E740
:1003F8006046E3E76146F7E76046A3E76346B7E789
:10040800834206D916B9002108467BE7C6E900E011
:10041800F9E7B3FA83F78FB9834201D3724508D855
:10042800BEEB020460EB030301209C461EB90021C9
:1004380068E73846FAE7C6E9004CF8E7C7F1200C48
:10044800BB4022FA0CF41C432EFA0CF120FA0CF3F0
:10045800B84001434FEA14490EFA07F5B3FBF9F81F
:100468001FFA84FE09FB18300B0C08FB0EFA43EA4E
:1004780000439A4502FA07F240D9E31808F1FF3021
:1004880004D29A4502D9A8F102002344A3EB0A0337
:1004980089B2B3FBF9F809FB183308FB0EFE41EAF1
:1004A80003418E452CD9611808F1FF3304D28E45DB
:1004B80002D9A8F10203214443EA0040A0FB0298B4
:1004C800A1EB0E014145CE46434602D306D14D4528
:1004D80004D2B9EB020E68EB04030138002EA6D053
:1004E800B5EB0E0261EB030101FA0CFC22FA07F3EB
:1004F8004CEA0303F940C6E9003198E74046C5E7EE
:100508004346D9E7F8B51C4803F0B1FD0446002876
:100518002CD01A481A4E02F0C6FD174B9F68194C8A
:10052800FB681548184D03219847154A12480021C1
:1005380002F04BFD22461048012102F046FD2A46F2
:100548000D48022102F041FD2B68226831680F48EE
:1005580002F0A9FD6B68626871680D4802F0A3FD9E
:10056800002144F6206002F0C7F8D8E7094802F0F5
:100578009AFD2046F8BD00BF48450008EB4A000830
:10058800380200203002002028020020084B000812
:10059800244B0008CA4A0008014B1B68184700BFD3
:1005A80000000020014B1860704700BF00000020C9
:1005B80030B585B004460D4610220021684603F088
:1005C80072FE02238DF802302A46044B019321461D
:1005D800684602F09DFA05B030BD00BFA1050008CD
:1005E80080B505460E461746984602F0A3F803461E
:1005F80003F0C4FEDFF81890044649F8003042467C
:1006080030463946A84754F8090000F0DDF900BF24
:1006180008000000034A536823F0020353600020D7
:10062800704700BF002004E0084B1A6842F480724B
:100638001A601A6842F400721A601A6842F48062FA
:100648001A60034B034A1A60704700BF003C02401F
:10065800380000200024F400014B0360002070479C
:100668001448000808B5034B1B689847BDE80840C4
:1006780000F026B80400002030BFFFF7FDBF00BF20
:100688002DE9F0410B4EDFF8308006EB0807CC1B54
:10069800054632460949204603F0F7FDA0194246AF
:1006A8000021083C03F0FFFD2C6707F10800BDE8B6
:1006B800F08100BF00000000040000000C480008A2
:1006C800074A936893F90E10002907DB5269934291
:1006D8001FBF044A536843F080535360704700BFFC
:1006E800A404002000ED00E070B5264B15469A6A78
:1006F80012F0100F9A6A14BF1124102412F0080F78
:100708009A6A18BF1224920706460AD5586B9A6A45
:10071800140634D519B19A6A22F080029A62132419
:1007280001E06FF01500174B9A6A12F0010F9A6AF0
:1007380018BF142412F0200F9A6A18BF1524D20685
:1007480002D49B6A9B070AD50E4B5B68190506D530
:10075800314600F011FA10B180F309880224094BE0
:100768009A6A920642BF5A6A22F400525A629A6AF8
:1007780042F0FF029A6200232B70204670BD6FF092
:100788001500CCE700ED00E0134B9A6A12F0007FE9
:100798009A6A14BF1E201D2012F0807F9A6A18BF23
:1007A8001F2012F4002F9A6A18BF212012F4802FFC
:1007B8009A6A18BF222012F4003F9A6A18BF2320B1
:1007C80012F4803F9A6A6FEA02426FEA12429A6212
:1007D80018BF2420704700BF00ED00E010B5194B8A
:1007E8000246986A9C6A10F4805F14BF172016208E
:1007F80014F4006F9C6A18BF1820A40509D5986BDB
:10080800986A000404D51AB19A6A22F400429A62DE
:1008180019200C4B9A6A12F4806F9A6A18BF1A2032
:10082800D2050CD49B6A13F4005F18BF1C20054A3C
:10083800936A43F47F43936200230B7010BD1B201F
:10084800F5E700BF00ED00E0F0B5484B5B688BB002
:100858000446C3F30803002585F31188BFF36F8F9F
:1008680002F07F40B0F17F4F11D102F00C00082850
:100878000DD010074CBF0C4601250022033B8DF814
:100888000720032B05D8DFE803F0246367602C46B4
:10089800F3E700239DF80720CAB902AE04F1200748
:1008A80020686168324603C20834BC421646F7D154
:1008B800099A002D54D0C2F3080121B96FEA5222D7
:1008C8006FEA4222099202A9184602F0FAFB0BB01D
:1008D800F0BD264BDA6A9107DBD4DA6A002AD8DB46
:1008E800DA6A5200D5D55A69A16942F480725A6110
:1008F800BFF34F8FBFF36F8F5A6931F8021C22F490
:1009080080725A61BFF34F8FBFF36F8F4DF602723B
:1009180091420AD09A6AD2B24AB10DF10702012176
:100928002046FFF7E1FE0346B4E72368B2E79A6A78
:1009380012F47F4F05D00DF107010120FFF74EFF9C
:10094800F1E79B6AB3F5803FA3D3FFF71DFFEAE702
:100958000DF107020021E3E70DF107010020EDE7A3
:1009680022F4FF7222F00102ACE700BF00ED00E0C4
:10097800044B5A6942F010025A615A6922F008027F
:100988005A61704700ED00E0EFF30880EFF309814A
:1009980001B57246FFF758FF01BD00BF102080F374
:1009A800118808484FF40461401880F30988EFF370
:1009B80014800221084380F31488BFF36F8F00F07E
:1009C8009BF8000000050020084B9B6883420BD170
:1009D800EFF3058343B1064B5A6842F080525A60E0
:1009E8005A6A22F400425A6203F014BCA40400209C
:1009F80000ED00E0094A93686FF00A019967084919
:100A080058674B6843F080534B60002383F3118889
:100A1800BFF36F8F9368986F704700BFA4040020DE
:100A280000ED00E015498A684FF030001044EFF3FC
:100A3800098C80E8F01F102080F31288BFF36F8FB5
:100A48000F4F4FF000664A698A603E604FF07004AD
:100A5800141920680B4C2060506F0023536780F3F3
:100A6800118804B5104600F0EFF8BDE8044002F123
:100A7800300090E8F01F8CF309887047A404002028
:100A880004ED00E0400200201EF0040F0CBFEFF35D
:100A98000880EFF30980816911F8021C0229FFD050
:100AA80001B5724602F013FB01BD00BF40B2002839
:100AB80007DB044A4109012300F01F00834042F884
:100AC8002130704700E100E040B20028A8BF00F1E3
:100AD800604001F10101B8BF064B4FEA0111ACBFFC
:100AE80000F5614000F00F00C9B2B4BF195480F896
:100AF8000013704714ED00E00F4A08B50F4B22F0C1
:100B08007F029A60BFF34F8FBFF36F8FD3F88820AF
:100B180022F47002C3F88820EFF3148323F004034F
:100B280083F31488BFF36F8F01F0D4F901F08EFEC0
:100B380000F060F801F012FA0000000800ED00E093
:100B480042F8203C009B42F81C3C0A49019B42F8B1
:100B5800183C029B42F8143C21F001014FF08073CD
:100B680042F8043C42F8081C0023203A0265436717
:100B7800704700BFE9050008094A0346906870B14C
:100B880013F1160F006E05D0A0F140029A4205D865
:100B9800834203D2814228BF00207047002070475B
:100BA800A404002008B515460B4A0C4B9060026F50
:100BB8001A600E4600F048F82C4686F309884FF074
:100BC8000000074B984720464FF000014FF0000205
:100BD8004FF00003034C2047A404002040020020EB
:100BE800E7300008E9050008014B10221A61704738
:100BF80000ED00E0044800231021C2180133562BF1
:100C080082F80013F9D1704700E100E008B5EFF36E
:100C18000583064A103B02EBC30152F833004968CA
:100C28008847BDE80840FFF74BBD00BF5C4500089A
:100C3800024B034A0348012100F076B80000022065
:100C48000000002014480008026E054B403A1A6064
:100C5800044A4021C3E901121846012100F06EB888
:100C68004402002000000B15084AC2F898000B68DF
:100C780023F01F03034343F01003C2F89C308B6832
:100C880043F00103C2F8A030704700BF00ED00E058
:100C98002DE9F043DFF8608085B00E461F46044614
:100CA8004FF00009B14523DA6068D8B13FB1411E61
:100CB80008421BD11F2819D92368194216D1236865
:100CC800019302F020FAA36803430393D8F89050E5
:100CD800C5F30725D0B2013DA84207D801A9FFF7FF
:100CE800C3FF421C09F101090C34DBE76FF0150260
:100CF800104605B0BDE8F08300ED00E0044B052286
:100D0800C3F89420BFF34F8FBFF36F8F704700BFB6
:100D180000ED00E0BFF35F8F024B0022C3F8942080
:100D2800704700BF00ED00E010B5034C01232278A6
:100D3800FFF7AEFF207010BDD404002008B50B4AA1
:100D480000231278FFF7A4FF10F1160F07D0084A06
:100D58000021D2F89030C3F30723984200DB08BD86
:100D6800C2F89800C2F8A0100130F2E7D4040020BD
:100D780000ED00E02DE9F043534B544CD3F890308C
:100D88002568C3F307239D4285B000F29A80FFF7D8
:100D9800C1FF00200C2685421AD14D4C4D4F2570BD
:100DA8006846FFF759FCDFF82081DFF82C910646EA
:100DB8000025AE4213D1237843490020D1F8902072
:100DC800C2F30722934276DBFFF798FF002042E048
:100DD800616806FB0011FFF747FF0130DBE7009869
:100DE80000EB05114FEA051CCB683B40B3F5000F3B
:100DF80048D00AD8B3F5001F30D0B3F5800F36D0ED
:100E0800B3F5801F10D00135D3E7B3F1807F42D00E
:100E1800B3F1007FF7D150F80C3088684A6802F0C7
:100E280072F940F4802009E050F80C3088684A686C
:100E380002F069F940F0885040F43020CDE90123F0
:100E48000390D8F890302078C3F30723013B9842E9
:100E58002AD96FF0150005B0BDE8F08350F80C30C2
:100E680088684A6802F04FF940EA0900E6E750F856
:100E78000C3088684A6802F046F940F0E06040F4B7
:100E88000030DBE750F80C3088684A6802F03BF91C
:100E980040F08270D2E750F80C3088684A6802F057
:100EA80032F940F08870C9E701A9FFF7DDFE237821
:100EB80001332370A7E7C1F89830C1F8A0000133C7
:100EC8007CE74FF0FF30C6E700ED00E0204800085F
:100ED800D40400200000F0FF0000081108B5024B00
:100EE8001B689847002008BD50020020034B044AA5
:100EF8001860937843F00203937070475002002003
:100F08000800002008B50649064821F00701C1F18C
:100F1800005202F5003202F087F8002008BD00BF39
:100F280007130020540200202DE9F041104E114F04
:100F3800054600244FF001082B7871691A19D2B2BE
:100F480008FA02F201EA02008A4309D153FA84F34B
:100F5800706157F833201AB107EBC30359689047FB
:100F68006A780134E3B29A42E6D2BDE8F08100BF64
:100F7800003C014060020020044B18440023013368
:100F8800994200F8012BFADC704700BF44000020AA
:100F980007B5062201210020FFF7EEFF00221146C7
:100FA8000620FFF791FD012108460722FFF7E4FF1D
:100FB800002211460720FFF787FD082201210220A1
:100FC800FFF7DAFF002211460820FFF77DFD09220E
:100FD80001210320FFF7D0FF002211460920FFF767
:100FE80073FD0A2201210420FFF7C6FF00221146E3
:100FF8000A20FFF769FD052108461722FFF7BCFF05
:10100800002211461720FFF75FFD282206210A203B
:10101800FFF7B2FF002211462820FFF755FD074AC7
:1010280092E803006B4683E8030005488268194686
:101038001268904703B05DF804FB00BF0C48000835
:1010480030440008034660B1B0FA80F2C2F11F02D2
:10105800D2B205498856054A11680B431360FFF759
:1010680025BDFF22F5E700BF44000020003C0140F9
:10107800024A136823EA000313607047003C0140EA
:10108800032921D8DFE801F0020C10190F4B9A68E8
:1010980022EA00029A60DA6822EA0002DA607047FF
:1010A8000A4B9A680243F5E7084BDA680243DA60AC
:1010B8009A6822EA00029A607047044B9A680243D1
:1010C8009A60DA681043D860704700BF003C01405E
:1010D80030B5B0B1B0FA80F3C3F11F03DBB20B48EF
:1010E80050F833408C4204D100EBC3056D6895423B
:1010F80005D044B940F8331000EBC300426000202B
:1011080030BDFF23EBE76FF00F00F9E76002002026
:1011180060B1B0FA80F3C3F11F03DBB2044A0021C7
:1011280042F8331002EBC30251607047FF23F5E722
:101138006002002000F00302043292000F23934063
:1011480043EA9000C3B20233054A52F82320030C45
:1011580002EA104093FAA3F3B3FA83F3D840704736
:101168000038014010B51D4B18680B68442B144615
:101178001DD82F2B05D85A1E042A0DD96FF08500CB
:1011880014E0A3F1300101228A4015490A420BD12B
:10119800402BF3D1400807E0023B032B04D8DFE8DB
:1011A80003F00219091100202060002010BDA82BAF
:1011B800FAD0E3E700F0A4F84FF4C073C00858432E
:1011C8008008F1E700F09CF84FF4C073C00858435A
:1011D800C008E9E74FF4FA40E6E700BF380000200E
:1011E8001101100070B5424D424C00F0A1F828469C
:1011F80002F035F800F02AFDA3683F4AC3F3031351
:10120800D35C20FA03F613781D41AE4202D2284679
:1012180000F04AFD236843F480232360236843F4E5
:1012280080332360334B1A689203FCD55A6F42F01F
:1012380001025A675A6F9407FCD59A6802F00C02AB
:10124800082A17D11A68900707D41A6842F00102D1
:101258001A60284A13689907FCD5264B9A6822F029
:1012680003029A609A6812F00C0FFBD19A6822F078
:10127800F0029A601F4C236823F080732360636830
:1012880023F4403343F480336360636823F070636E
:1012980043F00063636000F037F8236843F080731D
:1012A800236023689B01FCD5A36823F0F003A360A7
:1012B800A36823F0030343F00203A3600D4CA36863
:1012C80003F00C03082BFAD1AE4202D3284600F0F3
:1012D800EBFC0A4B064A1A60A36823F4E05343F474
:1012E8008053A360A36823F46043A360002070BD0B
:1012F80000D8B80500380240414C000838000020EA
:101308000048704700127A00064A07495368194096
:10131800064B0B435360536823F4403343F4803344
:1013280053607047003802400080BFFF08604000EB
:10133800064B1A6C42F080521A641B6C82B003F0A0
:1013480080530193019B02B0704700BF00380240F0
:1013580008B5074802F08BFE38B10648FFF7C6FD0E
:101368000448FFF71FF9002008BD6FF01200FBE7E3
:101378000C450008811300080A2838B5074D0446B3
:1013880004D1AB680D215B6828469847AB680348D1
:101398005B68E1B29847204638BD00BF0C4500089D
:1013A8002DE9F843D0F80480D0F81090D8F8080058
:1013B80017460D461E4601F0BBFEB7F5001F044652
:1013C80016D12846D8F80840FFF7B4FE84420CD15D
:1013D800294601F0ADFE0446FFF74AFE2046FFF716
:1013E80097FE00212046FFF74BFE0020BDE8F8835A
:1013F800B7F5800F20D0B6F1806F19D0B6F1C06F65
:1014080018D0B6F1007F1AD1022610494A46204664
:10141800FFF75EFEB0B9D8F80810284601F08BFE39
:1014280020463146FFF72CFE2046FFF70BFEDCE78F
:101438000126EAE70326E8E76FF08500D6E76FF0B4
:101448001500D3E76FF00F00D0E700BF273500087D
:1014580038B5036904465860084D284602F007FE6F
:1014680040B16168AB680C311B682846984700EAB0
:10147800E07038BD6FF01200FBE700BF3044000891
:1014880010B502694368126ADB68C2F34202012A96
:1014980004D0022A21D06FF0150010BD58681F4AE9
:1014A800B1FBF2F220F03F0010435860186A013295
:1014B80020F03F0002431A62194AB1FBF2F140F6EC
:1014C800FC72114208BF0421DA6922F44F4222F06B
:1014D800FF020A43DA610020DFE758680F4AB1FBD0
:1014E800F2F220F03F0010435860186A4FF49674E7
:1014F800624320F03F004FF47A74B2FBF4F20132F9
:1015080002431A62074A914289BF013248F2010137
:10151800B1FBF2F141F40041D6E700BF40420F00B1
:10152800400D03007F4F1200F7B504464368066973
:101538001748DD680F4659688368DB680022019206
:1015480023B96FF00404204603B0F0BD01AA984700
:101558000028F6DB376206F110074FF0FF324FF034
:10156800FF33384600F09CFD2B6823F001032B6005
:1015780020460199FFF784FF96F84D3004461BB1C9
:101588002B6843F001032B60384600F055FDDAE77D
:10159800304400082DE9F7430446D0F80480056973
:1015A8004FF0FF320021284602F09FFD0026D8F8B0
:1015B80000302046984785F84C6085F84E60012237
:1015C800114605F1100002F090FD274F384602F051
:1015D8004EFD002845D0D4F8049001AAD9F814008B
:1015E800314602F090FAB0420DDB019B3246197980
:1015F800186800F043F8B04205DBBB68D9F804105E
:101608001B6838469847D8F81010184B994222D0D2
:1016180015D8174B994220D0164BCB1A594259412D
:10162800890041F010012046FFF77EFF002803DB08
:10163800012385F84C30002003B0BDE8F0830E4B41
:1016480099420CD003F5C31303F5206399420CBFEC
:101658000A210021E5E70621E3E70221E1E7082165
:10166800DFE76FF01200E7E73044000840420F0060
:10167800A0860100801A060040E133002DE9F047FA
:101688001E4F044600EBC1060025B44201D10020DC
:1016980014E02068C30600F01F0911D4656845F0FE
:1016A8002005C0F3481AC0F344200F2823D857F860
:1016B8002080B8F1000F0DD16FF01200BDE8F0875F
:1016C800B9F1100F04D0B9F1110FEAD16568E8E754
:1016D8003025E6E7404602F0CAFC0028ECD04B462D
:1016E8002A460AF00F01404601F02FFF002804F1B6
:1016F8000804CADAE2E76FF01500DFE77849000866
:101708008B0548BF6FEA8151104B48BF6FEA915172
:1017180070B5CA17A1FB034603FB026605463146AE
:101728000B4A00232046FEF733FD002E2860214691
:1017380002DA1F3146F10006490941EAC660054A46
:1017480000237111FEF724FD6A6070BD3AA395006D
:101758000048E80140420F00F8B503690C465E688E
:1017680023794168012B34D09A1E55425541AD0268
:101778006279022A9CBF354F37F812C0A27988BF18
:101788004FF4005C042A27D0003B18BF01231B0339
:10179800E279012A0A680CBF4FF440770027A64275
:1017A800D1681CD121F4B05129430B43D36013698C
:1017B80023F4405343EA0C03136143681A685369DE
:1017C80023F440733B4353613168BDE8F84002F0AD
:1017D800B1BB4FF4C065CBE74FF48053D8E701F4B1
:1017E800C0618D421FBFD16821F4C0612943D16017
:1017F800426811680A6902F4405294451FBF0A6999
:1018080022F4405242EA0C020A6142681168CA682E
:1018180002F4805293421FBFCA6822F480521343D5
:10182800CB6043681A68536903F440739F421FBF33
:10183800536923F440733B435361216833689942E9
:1018480003D002F077FB23683360F8BDC44A000870
:101858002DE9F04143681D680369D3F804800B79CA
:101868000C46012B4979A67933D102294CD9042E8B
:1018780047D04FF480574FF4C06203238B4240D1C6
:10188800002F79D0002A14BF03220422B24238D193
:10189800E37963B1012B34D13A4B9D4207D0A3F5CC
:1018A8004C439D4203D003F550439D4229D1EB6838
:1018B80023F40053EB602146FFF74EFFEB6843F437
:1018C8000053EB6094E8030088E803000020BDE8BB
:1018D800F081022B08D1022921D9042E11D04FF40E
:1018E80080624FF48057C8E702290A461FD9042EA0
:1018F80004D133B94FF480571A46BEE763BB0329B6
:10190800C4D06FF08500E2E71F4A042E32F811C0F8
:10191800F7D04FF4C062033B012B10D8F1E71A4A05
:10192800042E32F811C0ECD04FF48062F3E7164A67
:10193800042E32F811C016D1002BE2D11A464FF40A
:101948008057BCF5805F13D0BCF5405F12D0BCF166
:10195800000F92D1012391E7033B012BD1D900223B
:10196800BFE70022D7E7002BFBD11A461F46E8E75E
:10197800002383E7022381E7002A14BF02220322FF
:1019880084E700BF00100140C44A0008F7B50669A3
:10199800446805462648306002F069FB18B96FF0C4
:1019A800120003B0F0BD3068E16883681B6898478F
:1019B8000028F6DB206A01AA002102F0A4F800281A
:1019C800EFDB019B002219791868FFF757FE002802
:1019D800E7DB6E682B6934685F68E36823F40053BB
:1019E800E360706802F043FB0028D8D0D6E9010113
:1019F8008368DB6803B1984704F10C0353E8003FA0
:101A080043F00C0304F10C0141E80032002AF3D141
:101A180039462846FFF7A0FE337D1BB1636943F0C2
:101A280008036361E36843F40053E3600020B8E708
:101A38003044000810B54FF0E0230F499C691A693B
:101A480008689B690D4902F4803234B993B903469A
:101A58004AB90A681044C01A10BD002B08BF0346D3
:101A68000AB9A342F5D90A6802440A604FF0E02295
:101A78001269EEE70446F3E7A00400209C04002066
:101A88000A4B102283F82320094B4FF416521A6090
:101A9800084B002018604FF0E02342F27F525A6151
:101AA80098611A6942F007021A61704700ED00E078
:101AB800A00400209C040020684620F007018D4601
:101AC80019B5FFF7B7FF114B1149D3E90042086870
:101AD800001942F10002C3E900020E4A00230B601C
:101AE800D2E900414FF41653001BB0FBF3F0434317
:101AF8001B1941F10001C2E9003100F083FFFEF734
:101B0800DFFDBDE819408546704700BF8000002012
:101B18009C040020780000202DE9F041DFF8DC80EB
:101B280099B1421C0BD14FF0E022136923F0010355
:101B380013614FF07F43C8F80030BDE8F081D8F852
:101B48000060012807DC00270BE0431CD8F8006080
:101B5800F7D140F2D26040F2D3639842A8BF18464A
:101B6800471EEFF31185102383F31288BFF36F8F9D
:101B7800FFF760FF224C4FF0E0239969D4E9002376
:101B8800801843F10003C4E900031E4B00221A60C9
:101B98001D4B1A68831A2ED44FF4165C0CFB0733BE
:101BA80003F515533F33B3FBFCF7131A0CFB07334C
:101BB800B3F5806F154A38BF4FF48063934228BF4E
:101BC80013464FF0E022C8F80030013B906953619A
:101BD800002393618142A1EB0003D4E9001238BFCE
:101BE8009B195B1842F10002C4E9003285F31188A1
:101BF800BFF36F8FA1E74FF48063E2E7A0040020F2
:101C0800800000209C0400207800002000C3FF0012
:101C180038B5EFF31185102383F31288BFF36F8F64
:101C2800084B1C68084B1B68E41AFFF703FF85F391
:101C38001188BFF36F8F4FF416532044B0FBF3F0B5
:101C480038BD00BF800000207800002008B5134987
:101C58008B6803F00C03042B1CD0082B1CD14A689A
:101C68004B68496813F4800314BF0D480D48C1F34D
:101C7800881118BF002302F03F02A1FB0001FEF704
:101C8800D7FA064B5B68C3F3014301335B00B0FB33
:101C9800F3F008BD0248FCE70248FAE700380240C2
:101CA80000127A000024F400002876D03C4B1A6811
:101CB80002F44042B2F5404F20D13A4A904215D83A
:101CC800394A904207D91A6802F44042B2F5004FE7
:101CD8005CD102201FE0354A90421A6802F4404263
:101CE80047D9B2F5004F4CD1012014E01A6802F42C
:101CF8004042B2F5004F3FD103200CE01A6802F4CD
:101D08004042B2F5004F22D1274A90423ED8274A96
:101D180090422ED90020224B1B68012838BF012091
:101D280003F44043B3F5804F1FD0214A136823F0D2
:101D3800070303431360136803F0070398421CBFAB
:101D4800136803F00703C01A18BF012070471B6807
:101D580003F44043B3F5804F0CD1134B98421AD883
:101D6800124B98424FF00000DFD9012838BF0120FC
:101D7800DBE71B680020D8E71B68032003F4404317
:101D8800D0E71B68012003F44043CBE71B6802201F
:101D980003F44043C6E70220C7E70120704700BFAD
:101DA80000700040804A5D050090D00380C3C901DF
:101DB800003C024038B5EFF31185102383F31288F5
:101DC800BFF36F8F064B9C6802F064F985F31188A6
:101DD800BFF36F8F2046BDE83840FEF7F5BD00BF62
:101DE800A404002038B5094B53F82040013053F8BB
:101DF8002050A54200D838BD636823B1204602F0C0
:101E08004CF90834F5E723689847FAE7AC4A000824
:101E180070B52B4B2B4C2C4D012286B003201A7029
:101E2800FFF7E0FF00F06EFE02F053F90420FFF721
:101E3800D9FF2646AE4204F1300410D300F082FBED
:101E4800204C224EAC4226D300F090FBFEF75AFB02
:101E58001F4A137B23F00103137306B070BD54F8B7
:101E68000C3C059354F8103C049354F8143C039329
:101E780054F8183C029354F81C3C019354F8203C45
:101E8800009354E90A2354E90C0100F05FF954F86F
:101E9800303C5E65CDE7D4E90A23B3F1FF3F08BFC4
:101EA800B2F1FF3F05D052EA0301206803D102F0E6
:101EB80028F93034C6E73146183000F029FDF8E734
:101EC800D50400200C4800080C48000815420008FA
:101ED8000801002008B50348034A0021121A02F03D
:101EE800F4F808BD78000020D804002070B500235D
:101EF80086B00122CDE90423134E144D01930F221D
:101F0800CDE902321249142303FB005506EBC01633
:101F180004464FF4C07000FB04110E4B00954FF4BB
:101F2800A072304600F012F9737B0B4AEE6023F082
:101F3800040373734FF4046304FB033313442C74D6
:101F48006B6006B070BD00BF88000020A4040020AC
:101F5800400D0020DD40000800050020BFB500202E
:101F6800FFF740FF2C4B83F308882C4D2C4E6B69F0
:101F78002C4F43F400736B610024F02385F8223062
:101F8800EC772C766C76AC7685F820406B6A43F457
:101F9800E0236B62FEF7ECFCFEF726FE4FF0FF3302
:101FA800AB62EB62FEF7E6FEFEF742FE1E4BB36045
:101FB80040F201129A81C3E91844DC6602F056F82F
:101FC800FEF732FB0120FFF70DFF0220174DFFF748
:101FD80009FF00F0FFFA164B7561059301231549B7
:101FE8000094CDE903434FF480623B46CDE90144B8
:101FF800284600F0ABF86A7B064622F00402284621
:102008006A7302F0BAF82046FFF770FF3A46314685
:102018002846FEF7C7FD00BF400D002000ED00E098
:10202800A4040020191E00088801002008010020CF
:10203800514C0008C00E002070B5EFF31186102334
:1020480083F31288BFF36F8F0468A0421AD0CCB113
:10205800D4E9003213605A60637B002523F0020341
:102068006373C4E90055A56004F1180002F0F4F8A0
:102078002046A56702F081F831460848BDE870405F
:1020880000F01CBAD0E902329A4218BF01338360CB
:1020980086F31188BFF36F8F70BD00BFD604002090
:1020A80013B5EFF31181102484F31288BFF36F8FF7
:1020B800846844B1013C846081F31188BFF36F8F59
:1020C800002002B010BD52EA030406D181F3118842
:1020D800BFF36F8F6FF00F00F3E7CDE900230246DF
:1020E800014800F0BFF9ECE7D60400202DE9F041E3
:1020F8000546EFF31188102383F31288BFF36F8F1F
:1021080000266FF00A072C68A54214D09CB1D4E9C8
:10211800003213605A60637BA66023F00203C4E9AF
:102128000066637304F1180002F096F8A76720466A
:1021380002F023F8E7E70023AB6041460248BDE818
:10214800F04100F0BBB900BFD60400202DE9F043F0
:10215800073285B022F007020E461F461099017318
:1021680000F158037F32C0E916330446002322F0F9
:102178003F020421836041733F2A0F98A073C4E98A
:102188000633E37306F14009A2F1400805D883F34A
:102198001188BFF36F8F084602DFB518294620461D
:1021A800FEF76EFA07300E9B20F00700A066C4E920
:1021B800189802930D9B01932D1A0C9B00932A46A5
:1021C8003B4631462046FEF7BBFC00236365044BC3
:1021D8009B6803B1DB6EE366284605B0BDE8F08373
:1021E800A404002038B590F90D20437B002A01464D
:1021F80004DA03F07F03437301F085FF0D4D2A468F
:10220800AB6852F8184F944200D004B9EC688B427E
:1022180007D05A7BD20604D1DA897F2A01D9A2696C
:102228002AB1A34202D0204600F0B8FA23466B61D7
:1022380038BD00BFA404002070B590F90D30427B72
:10224800002B36DBD10634D18369002B31D11C4CED
:1022580062F07F024273224652F8181F914218BF5B
:102268000B46E16923B9C0E900210860E0610CE090
:1022780090F90E5093F90E60B5421BD0AE4219DDAD
:102288005968C0E9003108605860A569954200D0D6
:1022980005B9E568A3685A7BD20604D1DA897F2A92
:1022A80001D9AA6952B1AB4202D0284600F076FAA9
:1022B800656170BD9942D6D01B68D3E76361F8E7C2
:1022C800A40400202DE9F843002A427B0CBF4FF0FC
:1022D80010094FF0080919EA020F04460F4621D1E8
:1022E80049EA0203D2092AD14373B9F1080F2CD065
:1022F8004FF00008344E334653F8185F9D4200D023
:1023080005B9F568B368AB4202D0284600F046FA32
:10231800B9F1100F756144D1BFF35F8F637B23F070
:1023280060036373284B9B68A34247D1EFF305838F
:10233800002B43D13846BDE8F843FEF75BBB03F0FA
:102348007F03437301F0DFFECFE7A36813B1204694
:1023580001F0E1FE04F1180001F07EFFA56D04F123
:102368005806AE4211D04FF0000875B1284601F06A
:10237800D2FE05F1180001F06FFFC5F878802846F5
:10238800FFF75AFFA56DAE42EFD10F4B9B689C42F9
:10239800AED1EFF30588B8F1000818BF4FF0010877
:1023A800A8E7B8F1000FB7D0084BB36040F20112AC
:1023B8009A810022C3E91822DA66ADE787F311880B
:1023C800BFF36F8FBDE8F883A404002088010020C4
:1023D80070B590F90D20437B002A014604DA03F01A
:1023E8007F03437301F08FFE4B7B1D4C63F07F032B
:1023F80022464B7352F8183FE069934208BF002306
:1024080023B9C1E900200160E1610CE091F90E50A7
:1024180093F90E60B5421ED0AE421CDD5868C1E982
:10242800003001605960A569A368954200D005B9DC
:10243800E5688B4207D05A7BD20604D1DA897F2A15
:1024480001D9AA692AB1AB4202D0284600F0A6F900
:102458002B46636170BD9842D3D01B68D0E700BF9C
:10246800A4040020F8B5124B0C461146114A98688E
:102478001060DDE90676EFF31182102282F31288EC
:10248800BFF36F8F9D68284601F04FFEB6F1FF3FFE
:1024980008BFB7F1FF3F06D007493A46334605F172
:1024A800180000F035FA2046BDE8F840FEF7A2BA59
:1024B800A4040020C40400201542000849B9EFF321
:1024C800058030B9054B5A699B689A4201D0FEF7DE
:1024D80091BA81F31188BFF36F8F7047A40400206D
:1024E80010B5EFF31184102282F31288BFF36F8FB7
:1024F800427B510704D484F31188BFF36F8F10BD5A
:1025080022F004024273FFF797FE21460248BDE815
:102518001040FFF7D3BF00BFD6040020034648B9D8
:10252800EFF3058232B9064A51699268914201D0A7
:10253800FEF760BA83F31188BFF36F8F704700BF4F
:10254800A4040020EFF31181102383F31288BFF352
:102558006F8F054B9A68D37B013BD37381F3118846
:10256800BFF36F8F704700BFA404002070B5EFF36E
:102578001186102383F31288BFF36F8F144DAB6855
:10258800DA7B0132DA732A4652F8184F944200D0A7
:1025980004B9EC685A7BD20604D1DA897F2A01D9BA
:1025A800A2692AB1A34202D0204600F0F7F82346D8
:1025B8006B6186F31188BFF36F8FEFF311801023DF
:1025C80083F31288BFF36F8FBDE87040FFF7A6BF93
:1025D800A4040020024B03F11802C3E90622704745
:1025E800A4040020F8B5EFF31186102383F31288B2
:1025F800BFF36F8F1D4CA068437B03F07F034373C9
:1026080001F081FDA3685A7B214662F07F025A736C
:1026180051F8182FE0698A4208BF002222B9C3E99D
:1026280000100360E3610CE093F90E5092F90E700C
:10263800BD4217D0AF4215DD5068C3E900200360E2
:102648005360A5698D4200D005B9E568A3689D422D
:1026580002D0284600F0A2F865613046BDE8F8408F
:10266800FEF7C8B98242DAD01268D7E7A40400207E
:1026780050EA01032DE9F04105460E4603D1FFF764
:10268800B1FF00202BE0831C71F1FF3329DB01F03F
:10269800F8FD2C18EFF31188102383F31288BFF389
:1026A8006F8F124F124BB8681860FFF79BFDB86820
:1026B80010492A463346183000F02AF9BA68537B85
:1026C80043F0100353734046FEF794F901F0D9FD27
:1026D800201A63EB0303012873F10003D1DBBDE883
:1026E800F0816FF00104241AD4E700BFA40400208D
:1026F800C404002015420008B1F1FF3F08BFB0F143
:10270800FF3F08B506D10A4B986801F045FD4FF028
:10271800FF3008BDFFF7ACFFC11709304FF00A02C0
:102728004FF0000341F10001FDF782FDF1E700BF22
:10273800A4040020014B9868704700BFA40400203F
:10274800044BC01A044BC0105843044B01221A54BE
:10275800704700BF08020020ABAAAAAAD60400202E
:10276800C3897F2B12D80A4B1B6863B1094B90F9B8
:102778000E201B689A4209DB437BDB0606D1064B19
:10278800C31A18BF012303F0010070470023FAE7BA
:10279800CC040020C80400208800002070B50E4B2F
:1027A8000E4C1E7C06EB460304EBC304054620468C
:1027B80001F052FD0A4B002228469A55FFF7D0FF38
:1027C80048B1084B08491A68013A2046D317BDE8B2
:1027D800704000F09DB870BDA404002008020020DD
:1027E800D6040020CC0400204927000838B5EFF3B0
:1027F8001185102383F31288BFF36F8F104B114A92
:102808009C681068A04206D1FFF7C8FF85F31188BD
:10281800BFF36F8F38BD00211B7C11600A4AD35C5F
:10282800002BF3D02046FFF79BFF0028EED0637BF8
:10283800DB0602D12046FFF7CBFD2046E4E700BFC8
:10284800A4040020C4040020D60400200748084A35
:10285800084908B5121A01F03AFC0748074A08491E
:10286800BDE80840121A01F032BC00BF0000002089
:1028780072000020A04C000800000020000000208A
:10288800A04C0008034B1B680BB9FFF7C1B9002027
:10289800704700BFD004002030B570B10B4B5B68A7
:1028A80098420AD0036843B1D3E90421D0E904452A
:1028B800121941EB0501C3E90421D0E90032136084
:1028C8005A600023C0E9003330BD00BF3C0000203F
:1028D80010B50E4B1C689C4204D1FFF7D3FF6FF074
:1028E800004010BDFFF7CEFF002CF8D0D4E9043229
:1028F8001B1A62EBE072B3F1004F72F10001EEDADD
:10290800002AACBF18460020EBE700BF3C000020BF
:10291800B3F1FF3F08BFB2F1FF3FF8B504461D46CB
:1029280016465ED08160EFF31187102383F3128877
:10293800BFF36F8F013275F1FF3324DA2E49D1E9E5
:1029480000206FF001039B1A4FF0FF3262EB00008A
:102958009E1B60EB0500012E70F1000301DA0126D1
:102968000020C4E90460254ED6F800C07568B44557
:1029780008BF4FF0000CBCF1000F0DD1C4E9006591
:102988002C6074601CE0FFF77DFF013645F10005FF
:10299800361845EBE070E4E7DCE90420D4E90431BB
:1029A800934271EB000E1DDAD21ADCF8043060EBAA
:1029B8000100CCE90420C4E900C31C60CCF8044041
:1029C8003368B34209D09C4207D10D4B1C6824B927
:1029D800FFF77EFF2146FFF79FF887F31188BFF3C3
:1029E8006F8FF8BD9B1A61EB0001AC45C4E9043157
:1029F800C4D0DCF800C0BEE7200200203C00002064
:102A0800D00400202DE9F84FEFF3118C102383F345
:102A18001288BFF36F8FDFF8B0A0DFF8B0902C4FAB
:102A2800C9F80000DAF800000024504508BF00206B
:102A38000025D7E90021D9F80030E04678B3D0E97D
:102A4800046C4FEAE37EB3427EEB0C0B05DAF61A10
:102A58006CEB0E04C0E9046421E0B21841EBE671A6
:102A6800C0E90445C7E90021FFF716FF88F311887C
:102A7800BFF36F8F83689847EFF31188102383F3B0
:102A88001288BFF36F8FD9F80030DAF800009B1B6B
:102A98005045C446C9F80030CBD1D7E900219A186F
:102AA80041EBE3730024C7E90023C9F80040FFF7AE
:102AB8000FFF2146FFF730F888F31188BFF36F8FB7
:102AC800BDE8F84FFFF792BE3C000020D00400207C
:102AD8002002002010B5EFF31184102383F312882D
:102AE800BFF36F8FFFF7CEFE054A0346D2E9000118
:102AF800181841EBE37184F31188BFF36F8F10BD91
:102B080020020020014800F0CEBA00BF564C000851
:102B18002DE9F04F8DB043680293837815469A07E4
:102B2800804640F10D8100240E78002E00F00A81C5
:102B3800252E0BD04B1C03930134029B4146304693
:102B480098470028C0F2F6800399EDE74E788B1C71
:102B5800252E0393F0D00027B946BB46BBF11F0FC3
:102B680038D8A6F12003102B0AD8DFE803F02A0989
:102B780009300909092109090928092D09091F002E
:102B8800A6F13003092B33D92A2E37D11BF0400F79
:102B980055F8043B40F08280002BA7BF4BF0200B78
:102BA8009946C3F100094BF0280B01E04BF0010BEB
:102BB800039B13F8016B0393002ECFD130E04BF049
:102BC800020B4BF0040BF3E74BF0080BF0E74BF06C
:102BD800100BEDE7BBF17F0F19D8A6F13003092BD5
:102BE800D2D81BF0400F03D00A2101FB0737DFE7DB
:102BF8000A2101FB09394BF0200BD9E72E2E06D10B
:102C08001BF0400F40F09E804BF0400BD0E76C2E3D
:102C180031D02BD8682E36D06A2E3CD04C2E3AD0E4
:102C2800002F46F02003B8BF2BF04002A3F1650146
:102C3800BCBF1FFA82FB0027022901D9612B2FD1C3
:102C4800073525F00705DFF8ACA2083507271BF084
:102C5800080F66D00AEB070B56465E4563D1A4EB16
:102C68000A0A06EB0A02A9EB07096FE1742E9FD046
:102C78007A2E9DD0D4E71BF0800F18BF4BF4007B51
:102C88004BF0800B94E71BF4807F18BF4BF4007B5C
:102C98004BF4807B8CE74BF4207B89E71F4687E762
:102CA800A6F16301122900F2F080DFE811F01300A9
:102CB8004F00EE00EE00EE00EE004F00EE00EE00DA
:102CC800EE00EE00EE00FE00E900EE00EE001B0054
:102CD800EE00AF0055F8043B8DF8183001270DF1D0
:102CE800180AB4E755F804AB834BBAF1000F08BFD4
:102CF8009A461BF0400F14BF39464FF0FF3150463B
:102D080001F0D9FA0746A2E7029B414620209847DE
:102D180000280FDB013EB742F6D34C44A41BB14652
:102D280098E74E46F7E716F8010B029B414698478D
:102D3800002892DA98F8023043F0040388F8023049
:102D48004FF0FF3420460DB0BDE8F08F1BF0800F28
:102D580034D01BF4007F2CD0073525F00705AA4690
:102D680069685AF8080B2BF010050029ADB237DA5C
:102D7800404261EB410145F480650DF1180B0A23CF
:102D88005A4601F0A4FAA0EB0B0301936B0662D537
:102D9800019B25F001019F4289B240F3A180002EDA
:102DA80000F0998015F0100240F09C80BB460D465B
:102DB80023E0AA465AF8040BC117D4E7AA461BF425
:102DC800807F5AF8041B01D10846F5E71BF4007F01
:102DD80015BF48B208B241F3C01141F3C031C2E790
:102DE80050EA0103C9D11BF0400FC6D0002FC4D14F
:102DF8002BF0110295B2BB46019740F2064115EA45
:102E080001021CBF0BF1010B00222CE02BF0100279
:102E18001FFA82FB0A231BF0800C49D01BF40071B7
:102E28001DBF073525F00705AA46AA461ABF5AF856
:102E3800080B69685AF8040B50EA010545D12BF0D4
:102E480016051BF0400FADB242D0002F40D12BF039
:102E5800170295B2019715F0100248D0019B002E79
:102E680042D103F1010B29075AD4EB0706D5D945FE
:102E78006FDD0199A9EB0B035F18CB465B4649E070
:102E88004BF0100B10237826C5E7782B04D1C6F138
:102E9800780343F01003BEE7029B4146252098477C
:102EA8000028FFF647AF023447E608230026B2E7BA
:102EB800AA461BF480715AF8040BBDD01BF40071AC
:102EC8001ABFC0B2614680B2B6E72BF0060295B2CF
:102ED8000DF1180B54E725F01105ADB2BB468CE790
:102EE8000D46B8E73B460D4603F1020BBBE7DDF89C
:102EF80004B082E7974C0008904C0008CDE90432F2
:102F08004146029B202098470028FFF613AF049BF8
:102F1800059A01339945F1DCA4EB0B01CC189B46CB
:102F28000AB3029B4146302098470028FFF602AFBB
:102F38008EB901342744019B391B994224DC1D4674
:102F48005DBB019AA9EB0B092244554614469144EE
:102F580035E0019F92E7023441463046029B98478C
:102F68000028E7DAE6E640F206410D42E2D015F025
:102F7800020F14BF2B20202015F4806F04F10104E8
:102F8800414618BF2D20E9E7029B4146302098476B
:102F9800002804F10104CEDACCE606AB013D414637
:102FA800585D029B98470028CADAC3E6029B41464F
:102FB80020209847002804F10104FFF6BBAEA9EBD6
:102FC8000403002BF2DCBFE5704783681B691847D0
:102FD80000EBC100408840087047F8B50346FFF78A
:102FE800F7FFB0FA80F0C0F11F0003EB800CCA00B5
:102FF800DCF81060171D0C4606328DB256B9012157
:1030080001FA00F0D9680143D960CCF81040DD53CB
:103018009D52F8BDF1000431585AD85303EBC00053
:103028009E52C5805D52F4E7043A2DE9F041CC1D6B
:10303800114424F0070421F007010E1BF708B7FA22
:1030480087F2C2F12405AD004FF000080735C2F140
:103058002002ED0804604146A760C4F80C80920085
:1030680004F1100001F01FF96B0043F001036380C5
:1030780004EBC5027B1B5900A4F800805180A219FB
:1030880024F83550A2F80280A35304EBC70329465D
:103098005A8842F001025A802046BDE8F041FFF705
:1030A8009CBF002070470FB407B504A951F8040B62
:1030B8000191FDF77DFA03B05DF804EB04B07047A9
:1030C8007047012801D1EFF30583FEF773BE01466F
:1030D8000068FFF7F6BF00210120FFF7F2BF61B6D5
:1030E80062B680F31188BFF36F8F704772B6002302
:1030F80083F31188BFF36F8FBFF34F8F30BF62B672
:10310800BFF36F8F7047202809D9B0F1004F08D856
:103118000138B0FA80F0C0F11F0040007047082065
:1031280070473E20704708B5FDF7D8FE002008BD5F
:1031380001208840704700F00302043292000F23F8
:10314800934043EA900010B5C3B29B0003F180435B
:1031580003F59C33020C9C6892FAA2F2B2FA82F24E
:1031680024EA104091400143996010BD0B68A3F117
:103178003002782A82B012D803F1804303F50E3367
:1031880048681A6802431A600B6803F1804303F524
:103198000E3300201B680193019B02B070476FF04B
:1031A8008500FAE70B68A3F13002782A9FBF03F184
:1031B800804303F50E3349681A689DBF8A4300208F
:1031C8001A606FF085007047012806D0033802287E
:1031D8008CBF6FF08500002070470020704710B545
:1031E8000868FFF7F1FF002820DB4A68FF2A1CD097
:1031F800D3B203F1804303F50E33C2F342341868A7
:10320800C2F3042204FA02F220EA02021A604968B0
:10321800CBB203F1804303F50E33C1F302421868C1
:10322800C1F304218A4002431A60002010BD0868D7
:1032380008B5A0F13003782B0AD800F1804000F5DA
:103248000E304B680268934314BF0120022008BD6A
:10325800FFF7BAFF002814BF01200220F7E77047E4
:1032680043685B681B690B600020704743685B68B4
:10327800586942400A4042405A61002070474368FA
:103288005B6800209961704743685B68090499612D
:103298000020704743685A6853694B4053610020C7
:1032A800704710B503699868F8B1884219D1DC688D
:1032B80008689860A14200D1D860002008602AB14F
:1032C8009A680A60DA68996002B9D960002010E04B
:1032D800814206D108682060D8688142EDD1DC605F
:1032E800EBE7044600680028F2D1002AE8D16FF025
:1032F800150010BDF0B544680120676888401E4677
:10330800C2F3801327EA00078B403B43636090FABF
:10331800A0F7B7FA87F7D4F808C04FF0030E7F007C
:103328000EFA07F72CEA070C90FAA0F7B7FA87F716
:10333800C2F3C1137F00BB4043EA0C03A36090FAB9
:10334800A0F3B3FA83F3E7685B000EFA03F327EA06
:10335800030790FAA0F3B3FA83F302F030055B0099
:10336800C2F341229A403A43202DE26016D1072940
:103378002BD890FAA0F3226A2BB3B3FA83F39B00FD
:103388000F2101FA03F322EA030290FAA0F3B3FA39
:1033980083F39B0006FA03F31343236290FAA0F326
:1033A800B3FA83F3226890FAA0F05B000321B0FA25
:1033B80080F02D0901FA03F3400022EA0303854057
:1033C8001D432560F0BD2B46D9E7030A616A93FACD
:1033D800A3F282B1B2FA82F292000F2793FAA3F312
:1033E800B3FA83F307FA02F29B0021EA02029E4035
:1033F80016436662D2E72A46EEE7F8B512F4003CB7
:10340800076906460C46134627D09A071ED55D075E
:1034180040F182805022D80603F4403518D542F492
:10342800007225B1396921FA04F0C00746D518039E
:103438006AD5716801234968A3408B6170680023CD
:103448002146FFF757FF002D4CD114E01022E2E788
:103458009906E6D542F48062E3E7D00302F44035EA
:1034680020D5DA0612D5002D46D12B464FF400722E
:103478007068FFF73FFF3B6923FA04F2D20731D5A2
:103488000122A24023EA02033B612BE013F0200053
:1034980004D04DBB2B464FF48062E9E7B5B92B4603
:1034A8002A46E5E715B92B463022E1E7396921FAC2
:1034B80004F212F0010F4FF030020ED10120A040AB
:1034C80001433961BCF1000FB1D106E0396921FA35
:1034D80004F212F00102F1D002467068002321467E
:1034E800FFF708FF0020F8BD396921FA04F212F04D
:1034F800010F4FF48062E0E7396921FA04F212F013
:10350800010F4FF40072D8E7590397D50121A14064
:103518003046FFF7B9FE91E76FF08500E3E770B535
:103528000B468968054611B15E680C6801B970BD23
:103538008A682A4002D04B68304698471CB12368F5
:1035480021461C46F2E72346FAE7F8B51F4604462B
:1035580040680E461546FFF7CDFE112F07D1012111
:103568002B0501FA06F104D563685B6899610020B0
:10357800F8BD2046FFF788FEF9E743680169DB6874
:103588005A6822F4C0625A605A6822F4C0625A60CB
:103598005A6822F400725A605A6822F480625A60AB
:1035A80091F84D201AB95A6822F480725A6070470F
:1035B800F8B54368DC68236823F001032360FFF74C
:1035C800DCFF27686668A368E568E069216A626AC3
:1035D800D4F800C04CF4004CC4F800C0D4F800C0C3
:1035E8009BB22CF4004CBFB2B6B243F48043ADB2E8
:1035F80080B289B292B2C4F800C027606660A36046
:10360800E560E06121626262F8BD38B5436805692A
:10361800DC68FFF7B2FF95F84D301BB9236823F03B
:103628000103236038BD034600695B68426CDB68B0
:103638008AB1013A42641AB95A6822F480625A601F
:10364800826C1969127821F0FF010A431A61836CB0
:10365800013383647047C26A910742BF1A6842F413
:1036680000721A605A69520748BF1B69FEF7E4BC2A
:1036780070B50369D3E90D56DC6B024626B100210B
:10368800ADB999631CB10AE03CB95DB15C63104601
:10369800FFF7BBFF6FF0040008E005B15E6300218F
:1036A800D963F4E709B9FFF7B0FF002070BD59638B
:1036B800E7E7C3685A6842F480725A605A6842F46D
:1036C80000725A605A6842F480625A6070472DE965
:1036D800F0411F4643680469DD680E46904620465F
:1036E800FEF704FD736863643368A364337AE362A6
:1036F80087F001070023C4E90C73C4E90E33A36201
:103708002664A4F824802B6843F001032B602B68FF
:1037180023F400632B602B6843F480632B60337AB7
:1037280059070BD52B689A0541BF23F400731B0476
:103738001B0C2B602B6843F480732B60BDE8F08171
:10374800034600695B68426CDB68002A3DD0022AA8
:1037580021D0032A2BD0012A2ED11A6822F48062A4
:103768001A601A6822F400621A60C26A910742BF9E
:103778001A6842F400721A605A6822F480625A6029
:10378800426C013A4264826C1B691370836C01338A
:103798008364FEF751BC026C5268022A1DD81A686D
:1037A80022F480621A601A6842F400621A605A6849
:1037B80022F480625A607047013A4264826C1B6945
:1037C8001370836C013383647047C26A920742BFE7
:1037D8001A6842F400721A60DBE7704710B4436855
:1037E8000269DB685C69E40785B0014630D5106A78
:1037F800918C10F0010013D0946AC91101F00601F0
:1038080054B941F0F00190621A6922F0FF020A43AC
:103818001A6105B010BC704741F0F1010020F2E7D1
:10382800106B490020B11A69C9B222F0FF02EEE715
:10383800186941F0010120F0FF00C9B20143196184
:10384800526C022AE5D11A6842F400621A60E0E775
:103858005C69240705D5196992F8242021F0FF0135
:10386800D5E75C69A40739D5106A116BC00715D56F
:10387800A9B9906AD0B191625A690192019A9A697C
:103888000192019A1A68910541BF22F4007212044C
:10389800120C1A601A6842F48072D7E731B15A697B
:1038A8000292029A9B690293029BB2E7526C012A28
:1038B8000AD11A6822F480621A605A690392039A3C
:1038C8009B690393039BA4E7022AF6D11A6822F4A2
:1038D80080621A601A6842F40062EDE75C69640766
:1038E8003AD5146B24B1084605B010BCFFF79BBE4F
:1038F800516C022905D0032920D005B010BCFFF770
:103908001FBFD16A8C0742BF196841F40071196062
:10391800516C01395164916C18690870906C411CA4
:103928009164516C013951641B694370936C013384
:103938009364104605B010BCFEF77EBB196821F4ED
:1039480080611960516C01395164916C1B690B706D
:10395800936C013393645CE75869000602D5106BD9
:103968000028C0D15B695B067FF553AF136B002B52
:103978007FF44FAF0846C0E743680269DB685969BE
:1039880011F4806F59690BD021F48061596119686D
:1039980041F400711960012393630069FEF74CBB81
:1039A80011F4007F596905D021F400715961012390
:1039B8005363F2E7C90506D5596921F48071596145
:1039C8000123D363E9E770472DE9FF4101AD85E89D
:1039D8000E009DF80C300A9EBDF82C20076913F0E4
:1039E8000103044614D12946FFF771FE6068FFF70A
:1039F80060FE41F2883200233846FEF751FBC0B121
:103A08002046FFF7D5FD6FF0040004B0BDE8F08153
:103A180043682946D3F80C800123FFF758FE6068F5
:103A2800FFF747FED8F8043043F4C063C8F8043001
:103A3800DFE731462046FFF71BFEE6E7036993F808
:103A48004C201AB11B6A0B60002070476FF004000D
:103A5800704708B5002211461F20FDF735F81F20D2
:103A6800FDF724F8002220201146FDF72DF8BDE8C7
:103A780008402020FDF71AB82DE9F74398460B7A3D
:103A8800066943F0040315460B7207460C460B46BD
:103A98000122AA420AD906F110094FF0FF324FF06D
:103AA800FF334846FEF7FCFA002620E00AD2197ACE
:103AB800187D81EA000C1CF0010F01D040071FD5CA
:103AC80089071DD401320C33D2B2E2E7012D14BFAD
:103AD80004F114030023CDE90038384694E80E00B9
:103AE800FFF772FF061E04DB013D0C34EDB2002D1A
:103AF800ECD14846FEF7A0FA304603B0BDE8F083A3
:103B08006FF01506F8E730B50368136005790468A7
:103B180004EBC504A34202D36FF0010030BD5C7909
:103B28008C4201D00833F0E70020F7E74368C1F37F
:103B38004B101B6801F01F01C05801238B40034242
:103B480014BF0123002313700020704710B5436889
:103B5800C1F34B101A6801F01F01845801238B40F0
:103B680023438350002010BD10B54368C1F34B14A4
:103B7800186801F01F01235801228A4023EA020332
:103B88002350002010BD38B504460D46FFF7DEFF70
:103B980029462046FFF7E8FF002038BD006800F0FE
:103BA80066BA70B588B01C4643680C9D18689B8837
:103BB8008DF8072080290DF107064FF001014FF01D
:103BC8000002CDE90261CDE905458DF810200FD13D
:103BD80007228DF81C209DF81C20816842F0020203
:103BE8008DF81C208C68022202A9A04708B070BD7D
:103BF80002228DF81C209DF81C10846811438DF852
:103C08001C10A468F0E710B44468E468A44610BC2B
:103C1800604707B5009313460A460021FFF7F3FFF4
:103C280003B05DF804FB07B5009313460A468021EC
:103C3800FFF7E9FF03B05DF804FB07B501238DF832
:103C480007200DF10702FFF7E4FF03B05DF804FB5E
:103C58000123FFF7E8BF73B5066900253560044600
:103C680040688368984718B96FF0120002B070BDB9
:103C78000DF1060229462046FFF7EAFF0028F3DB8C
:103C88009DF80630E52BEFD1802238212046FFF73A
:103C9800D4FF002802DA6FF00400E7E7022231219E
:103CA8002046FFF7CAFF0028F5DB022386F8C93053
:103CB80008222C212046FFF7C0FF0028EBDB082252
:103CC8002D212046FFF7B9FF0028E4DB0DF107029C
:103CD80031212046FFF7BCFF9DF80730C3F3C0032E
:103CE80086F8C8302846C1E7F7B517460DF1070230
:103CF80005460E461C46FFF7ABFF50B99DF8073046
:103D080023EA07022243314628468DF80720FFF7A9
:103D180094FF03B0F0BD38B52ABB1B684568642B17
:103D280017D008DC192B16D0322B16D00C2B16D036
:103D38006FF015000CE0C82B13D0B3F5C87FF7D18E
:103D48000C2423460F222C21FFF7CEFF00B92C7438
:103D580038BD0A24F5E70824F3E70924F1E7072426
:103D6800EFE70B24EDE76FF08500F1E773B501236A
:103D78000E461446302101AA0546FFF754FF9DF868
:103D8800043033700DF10502012339212846FFF76D
:103D98004AFF24B19DF8053003F03F03238002B0A9
:103DA80070BD30B5054685B00C4600220DF10701FF
:103DB8002846FFF7DBFF9DF80730DB09F5D006231F
:103DC80002AA32212846FFF72EFF002809DBBDF999
:103DD8000A20BDF90C30BDF808106180A280E3808C
:103DE800002005B030BDF0B5066985B00024346008
:103DF8000DF1070239210546FFF72AFF002805DBE8
:103E08009DF80730E7B2BB4202D8002005B0F0BDEC
:103E180002A92846FFF7C5FF002804F10104F5DBD5
:103E280006EB4703BDF80A209A80BDF80C20A3F8DA
:103E38004420BDF80E20A3F88420E1E738B50469D2
:103E480023681F2B88BF0023154688BF23600329DA
:103E580035D8DFE801F0020F151B236804EB430394
:103E6800B3F904102846FDF74BFC2368013323609F
:103E7800002038BD236804EB4303B3F94410F1E78D
:103E8800236804EB4303B3F98410EBE7236804EBDE
:103E980043031046B3F90410FDF732FC236804EB22
:103EA800430305F10800B3F94410FDF729FC236822
:103EB80004EB430305F11000B3F98410D3E76FF066
:103EC8008500D6E782B003680193019B436801939C
:103ED800019B02B0704708B5436818680268036818
:103EE800D9070368C2F3C00248BF42F002029B0729
:103EF800036848BF42F004025907036848BF42F00C
:103F08002002DB0542BF6FF4807342F008020360B1
:103F1800D10701D5FFF7D6FF930701D5FFF7D2FFE9
:103F2800510701D5FFF7CEFF930601D5FFF7CAFF6A
:103F3800104608BD37B50269436810681C680D460D
:103F4800D9688368DB68E3B101AA9847002818DBC1
:103F5800E368019823F400431921E360AA00AB0F3A
:103F6800A0FB0101FCF764F96422B0FBF2F102FB4B
:103F780011031B013233B3FBF2F303EB01139BB2C2
:103F8800A36003B030BD10B543681B6810201A68E1
:103F98001206FCD5EFF3118280F31288BFF36F8FFE
:103FA8001C68240604D482F31188BFF36F8FEEE7F0
:103FB800596082F31188BFF36F8F10BD08B543684D
:103FC800186803681A0701D5FFF77CFF03689B068A
:103FD80043BF43680B7000204FF0FF3008BD0369F2
:103FE8005B681B680B6043681B68DB6803F4C0638D
:103FF800B3F5806F2FD0A3F5C06CDCF1000343EB61
:104008000C030B7143681B681B6903F44053B3F539
:10401800805F22D0B3F5405F21D0002B0CBF012375
:1040280003234B7143681B68DA68DB68D20403F426
:10403800C06316D5002B14BF032304238B71436878
:104048001B685B6903F44073A3F540725342534104
:10405800CB71002070470223D3E70023E1E7022356
:10406800DFE7002B14BF02230323E7E7704740B1C3
:10407800C368587810F001001EBF1878B0FA80F0B5
:1040880040097047EFF31183102383F31288BFF3BD
:104098006F8FFEE708B5FFF7F5FF10B5D0E90034DC
:1040A80033B90020E268537843F00103537010BD20
:1040B800204698470028F4D00028B8BF4042E3685B
:1040C800FF28A8BFFF201870ECE700F0ECB800F05C
:1040D800DCB8704708B51024EFF3118384F3128815
:1040E800BFF36F8FFFF702F8F6E73AB18A4205D3BC
:1040F800C0E90212C0E90000002070476FF0150007
:104108007047FEF7EDB9D0E9003213605A6000231A
:10411800C0E90033704708B5FFF7F5FF437B23F08C
:10412800020343730023836008BD38B504460D4677
:10413800FEF758F8637B43F002036373E5B1A560AB
:104148002B689D4209D16B68C4E900531C606C6000
:1041580012E06A689A42F6D01B68002BF3D094F9F3
:104168000E2093F90E108A42F3D09142F1DD5A687D
:10417800C4E9003214605C6038BD10B5EFF31184F7
:10418800102383F31288BFF36F8FFEF755F884F37B
:104198001188BFF36F8F10BD10B50446183000F0BA
:1041A8005BF8EFF31181102383F31288BFF36F8F4D
:1041B800627B1A4004D081F31188BFF36F8F10BD62
:1041C8002046BDE81040FEF77DB838B50446EFF349
:1041D8001185102383F31288BFF36F8F437B13F08D
:1041E800280F0BD183680BB1FFF795FF637B51B99B
:1041F80003F0FB0363732046FEF71EF885F311886E
:10420800BFF36F8F38BD03F0EB03F3E701211838D4
:10421800FFF7DBBFEFF31181102282F31288BFF39F
:104228006F8F027BD2070CD581F31188BFF36F8F94
:10423800002383F31188BFF36F8F0423184602DF2E
:104248007047437B1B0704D581F31188BFF36F8F39
:1042580070470122FEF736B810B5EFF3118410222B
:1042680082F31288BFF36F8F03683BB1FEF714FB2C
:10427800002084F31188BFF36F8F10BD6FF0150015
:10428800F7E708B5FEF726FC08BD0A44914200F19D
:10429800FF3300D1704710B511F8014B03F8014FF7
:1042A8009142F9D110BD02440346934200D17047B0
:1042B80003F8011BF9E710B5024601448A42134688
:1042C80003D01C780132002CF8D1181A10BDF0B5B3
:1042D800C3F137070446FFB203F01F031046082B4B
:1042E800E6B233D0102B3ED06508A40844EA8174A6
:1042F80045EAC1752D194FEA910242EB510229098D
:1043080041EA02716D1842EB1212290A41EA026170
:104318006D1842EB1222290C41EA02416D1842EB5A
:104328001242AD1842F10002EC0844EA4274D10886
:1043380004EB8402A6EB4205EDB2092D0CD9013439
:10434800A5F10A0541F10001EDB212E0E40844EAE2
:10435800417406F00705C908303554EA010200F82F
:10436800015BBCD1F0BD240944EA017406F00F05D5
:104378000909092D84BFED19EDB2EDE70148006880
:08438800704700004002002014
:08439000DCBEFF7F010000000C
:10439800ED110008304400081D0600080000000068
:1043A800000000004444000859140008D0440008E4
:1043B80059140008F8440008990F000858440008E8
:1043C80059140008E444000859140008BC440008C3
:1043D80059140008A8440008591400089444000817
:1043E8005914000880440008591400086C44000857
:1043F800951900080C450008951900082045000883
:104408005913000800000000891A00080000000085
:104418000D0F0008000000009D1500083445000835
:084428005F3C00084845000854
:104430007B4B0008000000004048000856000020A8
:1044400000000000054C0008B8490008BC490008FD
:104450006A000020000000005D4B00080000000022
:10446000000000005400002060020020884B00087B
:104470005C480008FC48000858000020E0020020CA
:10448000964B000870480008FC4800085A000020BD
:10449000F4020020A44B000884480008FC480008EF
:1044A0005C00002008030020B24B00089848000878
:1044B000FC4800085E0000201C030020C04B0008E0
:1044C000AC480008FC4800086000002030030020D1
:1044D000CE4B0008C0480008FC48000862000020DD
:1044E00044030020DC4B0008D4480008FC480008C6
:1044F0006400002058030020EA4B0008E848000848
:10450000FC480008660000206C030020214C0008D5
:10451000004A0008984A00086E0000201800002099
:10452000314C00084C4A0008984A000870000020EE
:1045300028000020F84B00082049000860490008C6
:104540006800002080030020164C0008CC490008B9
:0C455000E44900086C000020D0030020AB
:10455C0000000000DF30000800000000DF30000821
:10456C0000000000DF30000800000000DF30000811
:10457C0000000000DF30000800000000DF30000801
:10458C005B4B0008310F0008594B0008310F000835
:10459C00574B0008310F0008554B0008310F00082D
:1045AC00534B0008310F000800000000DF300008FA
:1045BC0000000000DF30000800000000DF300008C1
:1045CC0000000000DF30000800000000DF300008B1
:1045DC0000000000DF30000800000000DF300008A1
:1045EC0000000000DF30000800000000DF30000891
:1045FC0000000000DF30000800000000DF30000881
:10460C0000000000DF300008514B0008310F00089B
:10461C0000000000DF30000800000000DF30000860
:10462C0000000000DF30000800000000DF30000850
:10463C0000000000DF30000800000000DF30000840
:10464C0000000000DF30000834450008E5370008A2
:10465C00344500088139000800000000DF300008F4
:10466C0000000000DF30000800000000DF30000810
:10467C0000000000DF30000800000000DF30000800
:10468C0000000000DF30000800000000DF300008F0
:10469C004F4B0008310F000800000000DF3000080D
:1046AC0000000000DF30000800000000DF300008D0
:1046BC0000000000DF30000800000000DF300008C0
:1046CC0000000000DF30000800000000DF300008B0
:1046DC0000000000DF30000800000000DF300008A0
:1046EC0000000000DF30000800000000DF30000890
:1046FC0000000000DF30000800000000DF30000880
:10470C0000000000DF30000800000000DF3000086F
:10471C0000000000DF30000800000000DF3000085F
:10472C0000000000DF30000800000000DF3000084F
:10473C0000000000DF30000800000000DF3000083F
:10474C0000000000DF30000800000000DF3000082F
:10475C0000000000DF30000800000000DF3000081F
:10476C0000000000DF30000800000000DF3000080F
:10477C0000000000DF30000800000000DF300008FF
:10478C0000000000DF30000800000000DF300008EF
:10479C0000000000DF30000800000000DF300008DF
:1047AC0000000000DF30000800000000DF300008CF
:1047BC0000000000DF30000800000000DF300008BF
:1047CC0000000000DF30000800000000DF300008AF
:1047DC0000000000DF30000800000000DF3000089F
:1047EC0000000000DF30000800000000DF3000088F
:1047FC0000000000DF30000800000000DF3000087F
:10480C0044000000004000000000002000000000F8
:10481C0000000B06020000002848000800000008F9
:10482C00404B00082400020700000020484B000801
:10483C0020000B1175310008AD310008000000009C
:10484C006D1100083732000800000000E731000845
:10485C00FFFF0000001C02400700000030000000B9
:10486C0080000000FFFF000000180240060000005E
:10487C003000000040000000FFFF00000014024068
:10488C00050000003000000020000000FFFF0000C9
:10489C000010024004000000300000001000000076
:1048AC00FFFF0000000C024003000000300000007D
:1048BC0008000000FFFF000000080240020000009A
:1048CC003000000004000000FFFF00000004024064
:1048DC00010000003000000002000000FFFF00009B
:1048EC000000024000000000300000000100000049
:1048FC00033400086932000875320008873200085A
:10490C00913200089D320008A9130008AB32000850
:10491C00000000005B3A0008384900080100000064
:10492C0000540040801A0600404900084000000076
:10493C000000200048490008010000005049000810
:10494C0002000000040300004002000024030000E9
:10495C004002000031150008453A0008813A000871
:10496C00000000000000000000000000F8440008F7
:10497C00E4440008D0440008BC440008A8440008E3
:10498C0094440008804400086C44000800000000B7
:10499C00000000000000000000000000000000000B
:1049AC000000000000000000000000000038024081
:1049BC00353B0008553B0008713B00088F3B000855
:1049CC003445000853000000A53B0008AB3B000831
:1049DC0000000000000000001F3D00080000000067
:1049EC0000000000EF3D0008453E000800000000FC
:1049FC000000000000440040444400081104000082
:104A0C00244A000801000000000000000000000023
:104A1C00000000002C4A00084000000000000200CA
:104A2C00344A0008010000003C4A00080200000063
:104A3C0047000000000200006700000000000000BA
:104A4C00001001404444000884040000704A00082F
:104A5C000100000000000000000000000000000049
:104A6C00784A00084400000010000000804A00084A
:104A7C0001000000884A000802000000C702000084
:104A8C0000020000E702000000000000C53F000823
:104A9C008F3F0008DF3E000859180008E73F000868
:104AAC009843000898430008104400081844000874
:104ABC0030440008304400080010000000305468F6
:104ACC0065204144584C3334352073656E736F72D6
:104ADC00206973206E6F742072656164792E004FAB
:104AEC004B2C2073656E736F7220646576696365F9
:104AFC002069732072656164792E0A005B76616CA3
:104B0C00315D20783A2025642C20793A2025642CBC
:104B1C00207A3A2025640A005B76616C325D20783D
:104B2C003A2025642C20793A2025642C207A3A20CE
:104B3C0025640A00464C4153485F30005352414DA6
:104B4C005F30000A060505040103010201010100A2
:104B5C0001696E746572727570742D636F6E747208
:104B6C006F6C6C65724034303031336330300072AE
:104B7C006363403430303233383030006770696FE3
:104B8C00403430303231633030006770696F4034FC
:104B9C0030303231383030006770696F403430302B
:104BAC003231343030006770696F4034303032311C
:104BBC00303030006770696F4034303032306330E1
:104BCC0030006770696F403430303230383030002C
:104BDC006770696F40343030323034303000677079
:104BEC00696F4034303032303030300069326340DD
:104BFC0034303030353430300072657365742D6369
:104C0C006F6E74726F6C6C6572006164786C3334A7
:104C1C00354035330073657269616C403430303027
:104C2C00343430300073657269616C40343030312B
:104C3C0031303030000000000000000000010203A1
:104C4C0004060708096D61696E002A2A2A20426F42
:104C5C006F74696E67205A6570687972204F5320A3
:104C6C006275696C642076342E302E302D353034DC
:104C7C002D67636262363139396536373963202ADC
:104C8C002A2A0A00286E756C6C29002A666C6F61E2
:044C9C00742A000076
:104CA000AB30000881060008000000002F3100082A
:104CB00000000000000000000000000020000020B4
:104CC00000C20100000103000000000030000020CD
:104CD00000C20100000103000024F4003C00002099
:104CE0003C000020FFFFFFFFFFFFFFFFFFFFFFFF74
:044CF000FFFFFFFFC4
:104CF40000000000000000000000000000000000B0
:0E4D04000000000000000000000000000000A1
:044D120015E015E0B3
:04000005080009A541
:00000001FF
